:1000000012C02CC02BC02AC030C128C027C026C0B7
:10001000B5C014C823C08CC121C020C01FC01EC0E1
:100020001DC01CC01BC011241FBECFE5D4E0DEBF25
:10003000CDBF10E0A0E6B0E0EAE3F6E102C0059033
:100040000D92A439B107D9F710E0A4E9B0E001C0DE
:100050001D92A93EB107E1F78DD4EDCAD1CFEF9241
:10006000FF920F931F937B01861B970BAA2797FD87
:10007000A095BA2FBC01CD0120E736E040E050E06A
:100080003DDA20E436E040E050E08DDAC901DA01E3
:100090000027F7FC0095102FE80EF91E0A1F1B1F02
:1000A000B701C8011F910F91FF90EF900895EF9253
:1000B000FF920F931F937B01861B970BAA2797FD37
:1000C000A095BA2FBC01CD0124E030E040E050E023
:1000D0006ADAC901DA010027F7FC0095102FE81A47
:1000E000F90A0A0B1B0BB701C8011F910F91FF9072
:1000F000EF9008959C0146E0369527954A95E1F7E3
:100100003093D9002093D8008F73907028EE33E09D
:10011000AC01429FC001439F900D529F900D11244E
:10012000809590959093C0008093BF001092D70067
:100130008091D8009091D900009721F08F5F9F4F58
:1001400091F40AC08091BF009091C0009DBD809144
:10015000BF009091C0000AC089B78B7F89BF81E042
:100160008093D70004C085E08DBD8FEF8CBD89B72B
:10017000846089BF8EB582608EBD08951F920F92F4
:100180000FB60F9211242F938F939F938091D800D5
:100190009091D90001979093D9008093D8008091D5
:1001A000D8009091D900009721F08F5F9F4FA9F45C
:1001B0000AC08091BF009091C0009DBD8091BF009A
:1001C0009091C0000DC08EB5887F8EBD89B78B7FA2
:1001D00089BF81E08093D70004C085E08DBD8FEF9B
:1001E0008CBD9F918F912F910F900FBE0F901F90FC
:1001F00018959C0140E050E060E271EA87E090E0F1
:10020000B0D9C901DA010197A109B109292F3A2F03
:100210004B2F55270196A11DB11D20BD815089B9D5
:1002200088E98AB986E880BD08955D9BFECF8CB9C8
:100230000895FC01009769F08081882351F0929A1B
:1002400004C05D9BFECF31968CB980818823C9F7AD
:100250009298089589E484BD88B7806488BF89B77F
:10026000806489BF1092950008951F920F920FB677
:100270000F9211242F933F938F939F93EF93FF93AC
:1002800089B78F7B89BF88B7806488BF80919400CD
:10029000813088F18330D8F1833069F58091BA00DC
:1002A0009091BB0023EC30E0029768F481E090E08D
:1002B0009093D6008093D50084E090EE9093E10077
:1002C0008093E00013C081E080939500E091B80036
:1002D000F091B900329780818093BD00E091B80021
:1002E000F091B900319780818093BC003093B900C0
:1002F0002093B8000CC081E090E09093D6008093EA
:10030000D50084E090EE9093E1008093E00089B7FF
:100310008F7B89BF14BC10929400FF91EF919F9145
:100320008F913F912F910F900FBE0F901F901895B6
:100330001F920F920FB60F9211242F933F934F935A
:100340005F936F937F938F939F93AF93BF93EF933D
:10035000FF935F9B73C0F89489B78F7B89BF8BB184
:100360008C7161F081E090E09093D6008093D5008D
:1003700086E090EE9093E1008093E0008CB1809352
:10038000970080919400813081F0813020F084309A
:1003900008F052C01EC0809197008093B6008091F3
:1003A00097008093C10081E045C0809197008093C1
:1003B000B700809197008093C20083EC90E0909307
:1003C000B9008093B8001092BB001092BA0082E08E
:1003D00031C0E091B800F091B9008091970081930D
:1003E000F093B900E093B8008091BA009091BB00FF
:1003F00001969093BB008093BA008091BA009091CF
:10040000BB004297B1F483EC90E09093B9008093E5
:10041000B8001092BB001092BA0081E090E0909377
:10042000D6008093D50087E090EE9093E100809312
:10043000E00083E0809394000DDF7894FF91EF91CA
:10044000BF91AF919F918F917F916F915F914F91EC
:100450003F912F910F900FBE0F901F90189521E0A4
:1004600030E03093D6002093D5009F70906E90932B
:10047000E1008093E00008958091D5009091D6002E
:10048000892B69F08091D5009091D6001092D6000A
:100490001092D5008091E0009091E10033D608954C
:1004A000FF920F931F93DF93CF93CDB7DEB76C9777
:1004B0000FB6F894DEBF0FBECDBFF22F2D8B3E8B53
:1004C000242F4F8B588F698F7A8F8B8F9C8F122F91
:1004D000698D7A8D092FF82EF9833A83352FC9015A
:1004E000DC019B0122503040AE014D5F5F4F04C0E4
:1004F000E40FF51F8D9180838A2F811BE82FF0E098
:10050000E217F307A8F3CE010196A8D6081711F059
:1005100080E004C080E0F91609F481E06C960FB623
:10052000F894DEBF0FBECDBFCF91DF911F910F9129
:10053000FF900895EF92FF920F931F93DF93CF9355
:10054000CDB7DEB764970FB6F894DEBF0FBECDBF50
:100550008B019091E20099838A83863011F482E0C6
:1005600002C04B8383E020E0682F70E07E01089496
:10057000E11CF11C0AC0F701EA0FFB1FE60FF71F91
:10058000A00FB11F8C9180832F5FA22FB0E0A41722
:10059000B50788F38B01040F151FC701B8015ED69C
:1005A000929A20E0AE014F5F5F4F07C0E40FF51F46
:1005B00030815D9BFECF3CB92F5FE22FF0E0E0176A
:1005C000F107A0F35D9BFECF8CB95D9BFECF9CB97C
:1005D00080E29EE40197F1F7929864960FB6F89442
:1005E000DEBF0FBECDBFCF91DF911F910F91FF9066
:1005F000EF900895EF92FF920F931F93F1D67C0135
:10060000EFD600E010E0A0E0B0E0E80EF91E0A1F0F
:100610001B1F16950795F794E794C7011F910F913B
:10062000FF90EF900895BF92CF92DF92EF92FF92EA
:100630000F931F93CF93DF93DDDF6C01DBDFEC01C2
:10064000EE24FF248701BB24D5DF8C179D0708F417
:10065000EC01C816D90608F46C01A0E0B0E0E80E81
:10066000F91E0A1F1B1FB39482E2B81669F7C60170
:10067000A0E0B0E0A8019701281B390B4A0B5B0BE7
:10068000CE01A0E0B0E0281B390B4A0B5B0B75E0F4
:1006900056954795379527957A95D1F7C901DF91FA
:1006A000CF911F910F91FF90EF90DF90CF90BF906F
:1006B0000895EF92FF920F931F93B5DF90939900E7
:1006C0008093980080919800909199002091A300C8
:1006D0003091A400820F931F90939900809398000B
:1006E00020919800309199006091DC007091DD00BC
:1006F000E091DE00F091DF00E090DE00F090DF009E
:100700006E1B7F0B80E090E040E050E0F7D6EFE01A
:100710009595879577956795EA95D1F700E010E074
:10072000E60EF71E081F191FF0929900E09298003C
:100730002091980030919900C9011F910F91FF906D
:10074000EF900895B6DF9C018091DA009091DB0074
:100750002817390738F48091DA009091DB00821B6A
:10076000930B08C08091DA009091DB00A901481B2F
:10077000590BCA01049730F03093DB002093DA0064
:10078000C901EBD48091D700882309F18091DA0068
:100790009091DB00E2D48DDF9093DB008093DA0050
:1007A0001092D70088EE93E0A5DC82B3805882BB1C
:1007B0008091D5009091D600892B49F08091D50089
:1007C0009091D60001969093D6008093D50008951D
:1007D00002D60895282FE199FECFCB01622F0BD7C7
:1007E0000895E199FECFFAD608959C01E199FECFD4
:1007F000CB01B9010DD70895E199FECFF7D6089541
:1008000081E090E0EEDF8F5F8093A200843010F0F3
:100810001092A20080E090E0E4DF8093E2008091FB
:10082000A2008130E9F0813030F0823091F18330E4
:1008300009F059C043C082E090E090939B00809300
:100840009A0084E090E090939D0080939C0086E065
:1008500090E090939F0080939E0087E090E014C00A
:1008600089E090E090939B0080939A008BE090E069
:1008700090939D0080939C008DE090E090939F006A
:1008800080939E008EE090E09093A1008093A00062
:100890002CC080E190E090939B0080939A0082E1CD
:1008A00090E090939D0080939C0084E190E0909371
:1008B0009F0080939E0085E190E0E6CF87E190E085
:1008C00090939B0080939A0089E190E090939D0023
:1008D00080939C008BE190E090939F0080939E001A
:1008E0008CE190E0D1CF1092A2008091A20061E053
:1008F00070E070DF80919A0090919B007DDF909373
:10090000DD008093DC0080919C0090919D0074DF5D
:100910009093DF008093DE0080919E0090919F0075
:1009200060DF8093BE008091A0009091A10064DF01
:100930009093A4008093A3008FE084BB87E087BBE3
:100940008EEF81BB7894D3D3929880E895E251DC06
:1009500085E085BD40D52EE088E190E00FB6F894A3
:10096000A89581BD0FBE21BD1092D70088EE93E0FF
:10097000C1DB08952F923F924F925F926F927F92C8
:100980008F929F92AF92BF92CF92DF92EF92FF929F
:100990000F931F93DF93CF93CDB7DEB72B970FB68F
:1009A000F894DEBF0FBECDBF109295001092940058
:1009B0001092D6001092D50023DF1092B100109251
:1009C000B2001092B3001092B4008EE190E014DFF8
:1009D0007C0100E010E08701FF24EE24E092B100EA
:1009E000F092B2000093B3001093B40080E290E064
:1009F00003DFA0E0B0E0E80EF91E0A1F1B1FE09223
:100A0000B100F092B2000093B3001093B400809153
:100A1000A20090E0805090439093E1008093E0002A
:100A20008091E0009091E1006DD320E030E048EC4F
:100A300050E018C0FA013197F1F70197D9F7A8955E
:100A40002F5F3F4F2A30310569F4552453944E01EE
:100A50000894811C911CA3EA2A2EA0E03A2EF0E40F
:100A60004F2E03C080ED97E0E5CF8091950088235D
:100A700021F468DE01DDA895F8CF109295009091E1
:100A8000B6008091E200981709F47FC08091B6000B
:100A90008E3F59F78091B7008838D9F55520C9F1B4
:100AA000E091B800F091B90080818234F1F6E091D4
:100AB000B800F091B90081818F36B9F6E091B800A5
:100AC000F091B9008281833781F6E091B800F0910E
:100AD000B9008381833749F6E091B800F091B900FD
:100AE0008481853711F6E091B800F091B9008581D5
:100AF0008E3409F0BACF8091B40089838091B3001D
:100B00008A838091B2008B838091B1008C8388E7C7
:100B100099C18091B7008938C1F5E091B800F09192
:100B2000B90090818091B400981709F09ECFE091B0
:100B3000B800F091B90091818091B300981709F045
:100B400094CFE091B800F091B90092818091B20009
:100B5000981709F08ACFE091B800F091B90093811D
:100B60008091B100981709F080CF8091E2008983CD
:100B700089E7B40141E050E0DDDCE091B800F0919C
:100B8000B90084818093E200EEC02091B6003091DC
:100B9000B7004091B8005091B9006091BA007091CF
:100BA000BB008091BC009091BD007ADC882311F0DD
:100BB0001B860EC081E090E09093D6008093D50014
:100BC00082E090EE9093E1008093E00090E89B87B4
:100BD000E091B800F091B90070806624E091B8000F
:100BE000F091B900818190E0862997292091B70082
:100BF000263009F483C0273030F42330E9F1243063
:100C000009F0DAC115C0253609F426C1263609F4E3
:100C1000AEC1243609F0D0C16091B8007091B9001E
:100C20004091BA005091BB004250504084E6C2C18E
:100C300080529041F1F46091DA007091DB0080E025
:100C400090E01FD46093AD007093AE008093AF002E
:100C50009093B0008091B00089838091AF008A8327
:100C60008091AE008B838091AD008C838B858460F6
:100C7000E9C0198284E8ECC084329105D9F085324C
:100C8000910530F48232910551F08397A1F512C09D
:100C90008532910541F08651904169F50EC0198267
:100CA0008091BE0003C019828091A3008A838B8546
:100CB00083607DC119821A82FACF8091A80089834E
:100CC0008091A7008A838091A6008B838091A500E4
:100CD0008C838091AC008D838091AB008E8380915A
:100CE000AA008F838091A90088878B858360B401D7
:100CF00048E050E05FC1198283E8AAC082329105C2
:100D0000C1F18332910520F4409709F09FC008C0DB
:100D10008532910509F451C0869709F097C07AC0D1
:100D2000E091B800F091B9008381882309F49DCE49
:100D3000E091B800F091B9001381E091B800F09112
:100D4000B90080818983E091B800F091B900818178
:100D50008A831B821C838B858660B40144E050E04B
:100D6000E9DB1093E2008091E20060E070E032DDA8
:100D70007CCEE091B800F091B90083818093BE00F1
:100D8000E091B800F091B90080818983E091B800CA
:100D9000F091B90081818A831B828091BE008C838F
:100DA0008B858660B40144E050E0C4DB8091BE00D6
:100DB00060919E0070919F00DACFE091B800F091B1
:100DC000B9008281F1018183E091B800F091B9000E
:100DD00093819093A300E091B800F091B9008081D5
:100DE0008983E091B800F091B90081818A83809174
:100DF000A4008B839C838B858660B40144E050E023
:100E000099DB6091A0007091A1008091A300909166
:100E1000A400ABC0E091B800F091B90083818111CA
:100E200081E0582EE091B800F091B900808189836B
:100E3000E091B800F091B90081818A831B825C82C5
:100E40008B858660B40144E050E0B4C0198286E826
:100E5000B40141E050E0AEC08651904109F005CEAA
:100E6000E091B800F091B90085818093A800E091ED
:100E7000B800F091B90086818093A700E091B80096
:100E8000F091B90087818093A600E091B800F091BD
:100E9000B90080858093A500E091B800F091B90079
:100EA00081858093AC00E091B800F091B900828513
:100EB0008093AB00E091B800F091B90083858093F6
:100EC000AA00E091B800F091B90084858093A90050
:100ED000A090A500B090A600E090A900F090AA0014
:100EE000C501B701BCD87093DD006093DC00C5017B
:100EF000B701DDD87093DF006093DE00E091B800A9
:100F0000F091B90080818983E091B800F091B90037
:100F100081818A8328E02B838B858566B40143E039
:100F200050E008DB8091DC009091DD0060919A0038
:100F300070919B005ADC8091DE009091DF006091FF
:100F40009C0070919D0051DC8091DC009091DD004F
:100F500060919A0070919B0048DC8091DE00909136
:100F6000DF0060919C0070919D003FDC7ECD198276
:100F70008231910571F08331910518F4419791F414
:100F800006C08331910541F0449761F407C088E8B9
:100F900007C090E89A8309C01A8207C08091A20016
:100FA0008A8303C01982E0E8EB878B858666B401EB
:100FB00042E050E0BFDA59CD8091B700806880935D
:100FC000B7008091B7006091B8007091B90040916E
:100FD000BA005091BB0042505040ACDA81E090E042
:100FE0009093D6008093D50085E090EE9093E10039
:100FF0008093E00082B3842582BB37CDC098C1982E
:1010000020E030E060E870E0482F50E0CB01022E95
:1010100002C0959587950A94E2F784239523892B3E
:1010200011F0C29A01C0C298C09AC0982F5F3F4F7A
:101030002830310559F7C19AC19808951F920F922F
:101040000FB60F9211242F933F934F935F936F939B
:101050007F938F939F93AF93BF93EF93FF93809171
:10106000B500813079F0813028F0823099F08330FA
:1010700001F518C085B38F6085BB80917000BEDF1D
:10108000A89817C085B38F6085BB80917100B6DFCB
:10109000A9980FC085B38F6085BB80917200AEDFC9
:1010A000AA9807C085B38F6085BB80917300A6DFC7
:1010B000AB988091B5008F5F8093B5008091B500AB
:1010C000843010F01092B50080EF82BFFF91EF9155
:1010D000BF91AF919F918F917F916F915F914F9150
:1010E0003F912F910F900FBE0F901F90189585E0A4
:1010F00083BF89B7816089BF80EF82BF1092B5003E
:1011000080E00895282F2F7040E650E0FA01E20FAA
:10111000F11D2081209373009C0164E03695279592
:101120006A95E1F72F70FA01E20FF11D2081A2E725
:10113000B0E02C93E92FFF27EF70F070E40FF51F5C
:1011400020812E93892F992782958F70480F591FE0
:10115000FA018081FD01829308959C0197FF30C0C0
:101160008FEB8093700020953095C9016AE070E0A4
:10117000E4D1E82FF0E0E05AFF4F808180937300C4
:10118000C9016AE070E0D9D19B01CB016AE070E04F
:10119000D4D1E82FF0E0E05AFF4F808180937200B5
:1011A000C9016AE070E0C9D1CB016AE070E0C5D145
:1011B000E82FF0E0E05AFF4F80818093710039C042
:1011C0006AE070E0BAD1E82FF0E0E05AFF4F80818A
:1011D00080937300C9016AE070E0AFD19B01CB013D
:1011E0006AE070E0AAD1E82FF0E0E05AFF4F80817A
:1011F00080937200C9016AE070E09FD19B01CB012E
:101200006AE070E09AD1E82FF0E0E05AFF4F808169
:1012100080937100C9016AE070E08FD1CB016AE070
:1012200070E08BD1E82FF0E0E05AFF4F808180938F
:1012300070008091BE00853078F48091BE008823D4
:1012400059F08091BE00E4E0F0E0E81BF109E059BC
:10125000FF4F80818F77808308950895CF93DF9328
:10126000EC012FEF3FEF40E050E02AC0E991AE2FB4
:10127000B0E0A227B327AF70B070AA0FBB1FAC5865
:10128000BF4F8D919C91B4E036952795BA95E1F7C3
:1012900082279327E295EF70F0E0E827F927EF70B7
:1012A000F070EE0FFF1FEC58FF4F20813181E4E01A
:1012B00096958795EA95E1F7282739274F5F5F4F85
:1012C0004617570798F2C901DF91CF9108950000A2
:1012D000AC9A000000000000AD9A00000000AC983D
:1012E000000000000000AD98000008950000AD98D7
:1012F00000000000AC98000000000000AD9A000063
:101300000000AC9A00000000089520E030E0482F73
:1013100050E0CA01022E02C0880F991F0A94E2F71A
:1013200087FF05C00000AC9A0000000004C0000068
:10133000AC98000000000000AD9A00000000000022
:101340000000AD9800002F5F3F4F2830310509F7AE
:101350000000AD9800000000AC9800000000000004
:10136000AD9A0000000000000000AD980000089554
:10137000FC010000AD980000A4980000AC980000AB
:10138000000090E080E00000AD9800000000AD9A01
:101390000000880F9C9981609F5F9830A1F780833F
:1013A0000000AD9800000000AC9800000000A49A76
:1013B0000000AD9A0000000000000000AD980000A1
:1013C00008951F93182F83DF80E99FDF812F9DDF12
:1013D0008DDF1F910895A49AA59A8CE1F2DF0895FC
:1013E000AF92BF92CF92DF92EF92FF920F931F9333
:1013F000DF93CF9300D00F92CDB7DEB719821A8258
:101400001B828CE9DEDF04EF11E05E010894A11C71
:10141000B11C92E0C92ED12CCC0EDD1E83E0E82E4B
:10142000F12CEC0EFD1E0150104051DF81E96DDF03
:10143000C5019EDFC6019CDFC7019ADF57DF8B81A4
:101440008068803819F40115110569F717FF03C08A
:1014500020E030E007C0998180E02A81AC01420F92
:10146000511D9A01C9010F900F900F90CF91DF91FC
:101470001F910F91FF90EF90DF90CF90BF90AF90B2
:101480000895E89409C097FB3EF490958095709577
:1014900061957F4F8F4F9F4F9923A9F0F92F96E9C0
:1014A000BB279395F695879577956795B795F11135
:1014B000F8CFFAF4BB0F11F460FF1BC06F5F7F4FD2
:1014C0008F4F9F4F16C0882311F096E911C07723E4
:1014D00021F09EE8872F762F05C0662371F096E8ED
:1014E000862F70E060E02AF09A95660F771F881FBC
:1014F000DAF7880F9695879597F90895629FD0013E
:10150000739FF001829FE00DF11D649FE00DF11DBE
:10151000929FF00D839FF00D749FF00D659FF00D6D
:101520009927729FB00DE11DF91F639FB00DE11D5A
:10153000F91FBD01CF0111240895AA1BBB1B51E166
:1015400007C0AA1FBB1FA617B70710F0A61BB70B33
:10155000881F991F5A95A9F780959095BC01CD01D8
:101560000895A1E21A2EAA1BBB1BFD010DC0AA1FE4
:10157000BB1FEE1FFF1FA217B307E407F50720F0FC
:10158000A21BB30BE40BF50B661F771F881F991F77
:101590001A9469F760957095809590959B01AC01C0
:1015A000BD01CF01089597FB092E05260ED057FDEA
:1015B00004D0D7DF0AD0001C38F450954095309500
:1015C00021953F4F4F4F5F4F0895F6F790958095C7
:1015D000709561957F4F8F4F9F4F0895E199FECF92
:1015E0009FBB8EBBE09A99278DB30895A8E1B0E028
:1015F00042E050E012C0262FE199FECF9FBB8EBB88
:101600002DBB0FB6F894E29AE19A0FBE01960895A9
:10161000F2DF272FF1CFDC01CB01FC01E199FECFF6
:1016200006C0FFBBEEBBE09A31960DB20D92415061
:0A1630005040B8F70895F894FFCF7A
:10163A00C0F9A4B0999282F880908883C6A1868E58
:10164A0040404040000001CC01D8001401F0003CA9
:10165A00002801E401A0006C007801B40050019C4C
:04166A0001880044AF
:00000001FF
