:1000000053C06DC06CC06BC071C169C068C067C0AF
:10001000F6C01CC964C0CDC162C061C060C05FC011
:100020005EC05DC05CC007634236B79BD8A71A3973
:10003000685618AEBAAB558C1D3CB7CC5763BD6D36
:10004000EDFD753EF6177231BF000000803F0800DD
:100050000000BE922449123EABAAAA2ABECDCCCC47
:100060004C3E00000080BEABAAAAAA3E00000000E1
:10007000BF000000803F0000000000084178D3BBB3
:100080004387D1133D190E3CC3BD4282AD2B3E6860
:10009000EC8276BED98FE1A93E4C80EFFFBE01C451
:1000A000FF7F3F000000000011241FBECFE5D4E019
:1000B000DEBFCDBF10E0A0E6B0E0E6E8FFE102C0A1
:1000C00005900D92A03AB107D9F711E0A0EAB0E08F
:1000D00001C01D92AB37B107E1F75ED552CF90CF8B
:1000E000EF92FF920F931F937B01861B970BAA271A
:1000F00097FDA095BA2FBC01CD0120E736E040E086
:1001000050E0A2DE20E436E040E050E0F2DEC9013B
:10011000DA010027F7FC0095102FE80EF91E0A1FE0
:100120001B1FB701C8011F910F91FF90EF90089519
:10013000EF92FF920F931F937B01861B970BAA27C9
:1001400097FDA095BA2FBC01CD0124E030E040E03E
:1001500050E0CFDEC901DA010027F7FC0095102F2F
:10016000E81AF90A0A0B1B0BB701C8011F910F917E
:10017000FF90EF9008959C0146E0369527954A95AB
:10018000E1F730936701209366018F73907028EE3A
:1001900033E0AC01429FC001439F900D529F900DF0
:1001A00011248095909590934C0180934B0110926F
:1001B00065018091660190916701009721F08F5F42
:1001C0009F4F91F40AC080914B0190914C019DBDCD
:1001D00080914B0190914C010AC089B78B7F89BFF8
:1001E00081E08093650104C085E08DBD8FEF8CBDFB
:1001F00089B7846089BF8EB582608EBD08951F92D5
:100200000F920FB60F9211242F938F939F9380918B
:100210006601909167010197909367018093660151
:100220008091660190916701009721F08F5F9F4F49
:10023000A9F40AC080914B0190914C019DBD809121
:100240004B0190914C010DC08EB5887F8EBD89B752
:100250008B7F89BF81E08093650104C085E08DBDFF
:100260008FEF8CBD9F918F912F910F900FBE0F90AC
:100270001F9018959C0140E050E060E271EA87E031
:1002800090E015DEC901DA010197A109B109292F12
:100290003A2F4B2F55270196A11DB11D20BD81502E
:1002A00089B988E98AB986E880BD08955D9BFECF4B
:1002B0008CB90895FC01009769F08081882351F082
:1002C000929A04C05D9BFECF31968CB980818823C1
:1002D000C9F79298089589E484BD88B7806488BF7F
:1002E00089B7806489BF1092A10008951F920F9270
:1002F0000FB60F9211242F933F938F939F93EF93F9
:10030000FF9389B78F7B89BF88B7806488BF80914E
:10031000A000813088F18330D8F1833069F5809175
:10032000C6009091C7002FE431E0029768F481E0A5
:1003300090E0909364018093630184E090EE909349
:100340006F0180936E0113C081E08093A100E09162
:10035000C400F091C500329780818093C900E0917C
:10036000C400F091C500319780818093C80030931C
:10037000C5002093C4000CC081E090E0909364011C
:100380008093630184E090EE90936F0180936E01FF
:1003900089B78F7B89BF14BC1092A000FF91EF91A9
:1003A0009F918F913F912F910F900FBE0F901F90B3
:1003B00018951F920F920FB60F9211242F933F930F
:1003C0004F935F936F937F938F939F93AF93BF935D
:1003D000EF93FF935F9B73C0F89489B78F7B89BFBE
:1003E0008BB18C7161F081E090E090936401809317
:1003F000630186E090EE90936F0180936E018CB163
:100400008093A3008091A000813081F0813020F0A2
:10041000843008F052C01EC08091A3008093C200B7
:100420008091A30080934D0181E045C08091A3009D
:100430008093C3008091A30080934E018FE491E0EC
:100440009093C5008093C4001092C7001092C6001C
:1004500082E031C0E091C400F091C5008091A3001A
:100460008193F093C500E093C4008091C600909101
:10047000C70001969093C7008093C6008091C60084
:100480009091C7004297B1F48FE491E09093C5003A
:100490008093C4001092C7001092C60081E090E0E3
:1004A000909364018093630187E090EE90936F01D5
:1004B00080936E0183E08093A0000DDF7894FF911C
:1004C000EF91BF91AF919F918F917F916F915F91CC
:1004D0004F913F912F910F900FBE0F901F90189545
:1004E00021E030E030936401209363019F70906EAF
:1004F00090936F0180936E010895809163019091B4
:100500006401892B69F080916301909164011092DC
:1005100064011092630180916E0190916F01FAD68F
:100520000895FF920F931F93DF93CF93CDB7DEB75C
:100530006C970FB6F894DEBF0FBECDBFF22F2D8B98
:100540003E8B242F4F8B588F698F7A8F8B8F9C8F88
:10055000122F698D7A8D092FF82EF9833A83352F62
:10056000C901DC019B0122503040AE014D5F5F4F5D
:1005700004C0E40FF51F8D9180838A2F811BE82F23
:10058000F0E0E217F307A8F3CE0101966FD7081742
:1005900011F080E004C080E0F91609F481E06C9667
:1005A0000FB6F894DEBF0FBECDBFCF91DF911F9184
:1005B0000F91FF900895EF92FF920F931F93DF9397
:1005C000CF93CDB7DEB764970FB6F894DEBF0FBEFA
:1005D000CDBF8B019091700199838A83863011F48D
:1005E00082E002C04B8383E020E0682F70E07E0150
:1005F0000894E11CF11C0AC0F701EA0FFB1FE60F8B
:10060000F71FA00FB11F8C9180832F5FA22FB0E046
:10061000A417B50788F38B01040F151FC701B80194
:1006200025D7929A20E0AE014F5F5F4F07C0E40FDD
:10063000F51F30815D9BFECF3CB92F5FE22FF0E0CC
:10064000E017F107A0F35D9BFECF8CB95D9BFECF59
:100650009CB980E29EE40197F1F7929864960FB6F8
:10066000F894DEBF0FBECDBFCF91DF911F910F91E8
:10067000FF90EF900895EF92FF920F931F93B8D7DA
:100680007C01B6D700E010E0A0E0B0E0E80EF91E73
:100690000A1F1B1F16950795F794E794C7011F9132
:1006A0000F91FF90EF900895BF92CF92DF92EF925B
:1006B000FF920F931F93CF93DF93DDDFEC01DBDF1E
:1006C0006C01EE24FF248701BB24D5DF8C159D052A
:1006D00008F46C01C817D90708F4EC01A0E0B0E0F9
:1006E000E80EF91E0A1F1B1FB39482E2B81669F7C1
:1006F00080916101909162010196909362018093D3
:1007000061018034910520F0109262011092610124
:10071000CE01A0E0B0E0E81AF90A0A0B1B0BE09149
:100720006101F0916201EE0FFF1FE553FF4FC6011B
:10073000A0E0B0E0E81AF90A0A0B1B0BA5E0169539
:100740000795F794E794AA95D1F7F182E082EBEC54
:10075000F0E020E030E040E050E081919191A0E0B5
:10076000B0E0280F391F4A1F5B1F81E0EB34F80708
:10077000A1F776E056954795379527957A95D1F765
:10078000C901DF91CF911F910F91FF90EF90DF9002
:10079000CF90BF900895EF92FF920F931F9384DF45
:1007A0009093A5008093A4008091A4009091A5004F
:1007B0002091AF003091B000820F931F9093A5005D
:1007C0008093A4002091A4003091A50060916A015B
:1007D00070916B01E0916C01F0916D01E0906C0102
:1007E000F0906D016E1B7F0B80E090E040E050E0E8
:1007F0002BDB1FE095958795779567951A95D1F72F
:1008000000E010E0E60EF71E081F191FF092A50089
:10081000E092A4002091A4003091A500C9011F918D
:100820000F91FF90EF900895B6DF9C0180916801D1
:10083000909169012817390738F4809168019091E7
:100840006901821B930B08C0809168019091690136
:10085000A901481B590BCA01049730F03093690174
:1008600020936801C90181D580916501882309F130
:10087000809168019091690178D58DDF909369012D
:10088000809368011092650188EE93E074DC82B376
:10089000805882BB8091630190916401892B49F05B
:1008A000809163019091640101969093640180931B
:1008B000630108954F925F926F927F928F929F9201
:1008C000AF92BF92CF92DF92EF92FF920F931F935E
:1008D000EBDEA0E0B0E0BC01CD01BDD73B014C0197
:1008E000E0906A01F0906B0140906C0150906D01B6
:1008F000A0906C01B0906D016091AF007091B0005C
:1009000080E090E0A8D79B01AC01C401B30193D66D
:100910003B014C01E418F50800E010E0C801B70104
:100920009AD79B01AC01C401B30167D820E030E045
:1009300040E058E362D87B018C01CC24DD24C60161
:10094000B50189D79B01AC01C801B70174D62091CC
:1009500060003091610040916200509163006BD65D
:10096000FFD820E030E040EA50E4AAD89B01AC0177
:10097000CA01B901209168003091690040916A0074
:1009800050916B003AD81F910F91FF90EF90DF903C
:10099000CF90BF90AF909F908F907F906F905F901F
:1009A0004F900895AF92BF92CF92DF92EF92FF9255
:1009B0000F931F937FDF5B016C01E0907101F0905A
:1009C00072010091730110917401C801B701A60171
:1009D00095010FD818162CF4C801B701A60195018E
:1009E00004C0C601B501A801970124D620E030E07B
:1009F00040E450E4FED718167CF4A0927101B09246
:100A00007201C0927301D0927401C601B50177D60C
:100A1000F1D6DC01CB01A9D480916501882369F16D
:100A200060917101709172018091730190917401D4
:100A300066D6E0D6DC01CB0198D43CDF609371012F
:100A40007093720180937301909374011092650109
:100A500088EE93E090DB82B3805882BB8091630183
:100A600090916401892B49F0809163019091640118
:100A7000019690936401809363011F910F91FF9001
:100A8000EF90DF90CF90BF90AF900895ACD50895D0
:100A9000282FE199FECFCB01622F53DA0895E19917
:100AA000FECF42DA08959C01E199FECFCB01B90156
:100AB00055DA0895E199FECF3FDA0895AF92BF92DB
:100AC000CF92DF92EF92FF920F931F9381E090E01D
:100AD000E6DF8093AE0002E010E01093A7000093E1
:100AE000A60024E0E22E20E0F22EF092A900E0928F
:100AF000A80096E0C92E90E0D92ED092AB00C0920B
:100B0000AA0087E0A82E80E0B82EB092AD00A09297
:100B1000AC0080E090E0C3DF80937001C801CADFC1
:100B200090936B0180936A01C701C4DF90936D01BC
:100B300080936C01C601B3DF8093CA00C501BADFA0
:100B40009093B0008093AF001F910F91FF90EF90B2
:100B5000DF90CF90BF90AF9008958FE084BB87E087
:100B600087BB8EEF81BBAADF7894C9D3929880E8C7
:100B700095E280DB85E085BD36D52EE088E190E00A
:100B80000FB6F894A89581BD0FBE21BD10926501E6
:100B900088EE93E0F0DA08952F923F924F925F92A1
:100BA0006F927F928F929F92AF92BF92CF92DF927D
:100BB000EF92FF920F931F93DF93CF93CDB7DEB7E2
:100BC0002B970FB6F894DEBF0FBECDBF1092A100D9
:100BD0001092A0001092640110926301BEDF109287
:100BE000BD001092BE001092BF001092C0008EE1B6
:100BF00090E060DF7C0100E010E08701FF24EE243C
:100C0000E092BD00F092BE000093BF001093C000C0
:100C100080E290E04FDFA0E0B0E0E80EF91E0A1F8E
:100C20001B1FE092BD00F092BE000093BF00109326
:100C3000C0008091AE0090E08050904390936F018F
:100C400080936E0180916E0190916F0163D320E0DB
:100C500030E048EC50E018C0FA013197F1F7019705
:100C6000D9F7A8952F5F3F4F2A30310569F45524F5
:100C700053944E010894811C911C40E4442E32E0B0
:100C8000232E30EE332E03C080ED97E0E5CF809128
:100C9000A100882351F48091AE00833011F482DEEC
:100CA00001C0C2DD2ADCA895F2CF1092A10090917C
:100CB000C20080917001981709F444C08091C2006D
:100CC0008E3F29F78091C3008838E1F55520D1F196
:100CD000E091C400F091C50080818234C1F6E091BA
:100CE000C400F091C50081818F3689F6E091C4007F
:100CF000F091C5008281833751F6E091C400F091F4
:100D0000C5008381833719F6E091C400F091C500D6
:100D10008481853709F0BBCFE091C400F091C50014
:100D200085818E3409F0B3CF8091C0008983809192
:100D3000BF008A838091BE008B838091BD008C832D
:100D400088E7BFC02091C2003091C3004091C40029
:100D50005091C5006091C6007091C7008091C80095
:100D60009091C900DEDB882311F01B860CC081E066
:100D700090E0909364018093630130926F01209220
:100D80006E0120E82B87E091C400F091C5007080CF
:100D90006624E091C400F091C500818190E086292D
:100DA00097292091C300263009F4B2C0273038F4C7
:100DB000233009F48DC0243009F006C215C0253651
:100DC00009F451C1263609F4D9C1243609F0FCC111
:100DD0006091C4007091C5004091C6005091C70059
:100DE0004250504084E6EEC18052904109F06DC0FF
:100DF0008091AE00833089F48091710190917201ED
:100E0000A0917301B09174018093B9009093BA00DE
:100E1000A093BB00B093BC000FC0609168017091BB
:100E2000690180E090E017D56093B9007093BA0033
:100E30008093BB009093BC008091CA00833089F0FE
:100E40008430E1F0823079F56091B9007091BA0098
:100E50008091BB009091BC0020E030E040E251E482
:100E600019C06091B9007091BA008091BB00909157
:100E7000BC0020E030E048EC52E40CC06091B900C6
:100E80007091BA008091BB009091BC0020E030E0EE
:100E90004AE754E447D46093B9007093BA00809352
:100EA000BB009093BC008091BC0089838091BB0003
:100EB0008A838091BA008B838091B9008C838B8563
:100EC0008460B40144E050E07DC1198284E8C7C069
:100ED00083329105A9F08432910518F48297A9F420
:100EE00006C08432910561F0859779F404C01982B7
:100EF0008091CA0003C019828091AF008A8302C02A
:100F000019821A828B8583605AC1198283E8A7C02F
:100F100082329105B9F18332910520F4409709F0AE
:100F20009CC008C08532910509F451C0869709F02C
:100F300094C07AC0E091C400F091C50083818823F9
:100F400009F4A5CEE091C400F091C5001381E091B1
:100F5000C400F091C50080818983E091C400F091C4
:100F6000C50081818A831B821C838B858660B401C6
:100F700044E050E020DB109370018091700160E04C
:100F800070E023C0E091C400F091C500838180939C
:100F9000CA00E091C400F091C50080818983E0918E
:100FA000C400F091C50081818A831B828091CA00B0
:100FB0008C838B858660B40144E050E0FCDA80913C
:100FC000CA006091AA007091AB0062DD60CEE09132
:100FD000C400F091C50082818093B000E091C4000C
:100FE000F091C50093819093AF00E091C400F0911F
:100FF000C50080818983E091C400F091C5008181A2
:101000008A838091B0008B839C838B858660B4013A
:1010100044E050E0D0DA6091AC007091AD00809176
:10102000AF009091B000A8C0E091C400F091C5005D
:101030008381811181E0582EE091C400F091C500B8
:1010400080818983E091C400F091C50081818A8309
:101050001B825C828B85866034CF198286E8B4015E
:1010600041E050E0AFC08651904109F010CEE091D0
:10107000C400F091C50085818093B400E091C40064
:10108000F091C50086818093B300E091C400F09197
:10109000C50087818093B200E091C400F091C50043
:1010A00080858093B100E091C400F091C5008185F6
:1010B0008093B800E091C400F091C50082858093D0
:1010C000B700E091C400F091C50083858093B6001D
:1010D000E091C400F091C50084858093B500A09094
:1010E000B100B090B200E090B500F090B600C5013C
:1010F000B701F6D770936B0160936A01C501B70120
:1011000017D870936D0160936C01E091C400F09169
:10111000C50080818983E091C400F091C500818180
:101120008A8388E08B838B858566B40143E050E039
:1011300042DA80916A0190916B016091A6007091F2
:10114000A700B1DC80916C0190916D016091A800C5
:101150007091A900A8DC80916A0190916B01609167
:10116000A6007091A7009FDC80916C0190916D01A9
:101170006091A8007091A90096DC89CD1982823116
:10118000910579F08331910518F4419799F406C0DF
:101190008331910549F0449769F408C098E89A832F
:1011A0000CC020E82A8309C01A8207C08091AE00D3
:1011B0008A8303C0198280E88B878B858666B40199
:1011C00042E050E0F8D963CD8091C30080688093FD
:1011D000C3008091C3006091C4007091C50040912C
:1011E000C6005091C70042505040E5D981E090E0E0
:1011F000909364018093630185E090EE90936F017A
:1012000080936E0182B3842582BB41CDC098C19882
:1012100020E030E060E870E0482F50E0CB01022E83
:1012200002C0959587950A94E2F784239523892B2C
:1012300011F0C29A01C0C298C09AC0982F5F3F4F68
:101240002830310559F7C19AC19808951F920F921D
:101250000FB60F9211242F933F934F935F936F9389
:101260007F938F939F93AF93BF93EF93FF9380915F
:10127000C100813079F0813028F0823099F08330DC
:1012800001F518C085B38F6085BB80917C00BEDFFF
:10129000A89817C085B38F6085BB80917D00B6DFAD
:1012A000A9980FC085B38F6085BB80917E00AEDFAB
:1012B000AA9807C085B38F6085BB80917F00A6DFA9
:1012C000AB988091C1008F5F8093C1008091C10075
:1012D000843010F01092C10080EF82BFFF91EF9137
:1012E000BF91AF919F918F917F916F915F914F913E
:1012F0003F912F910F900FBE0F901F90189585E092
:1013000083BF89B7816089BF80EF82BF1092C1001F
:1013100080E00895282F2F704CE650E0FA01E20F8C
:10132000F11D208120937F009C0164E03695279574
:101330006A95E1F72F70FA01E20FF11D2081AEE707
:10134000B0E02C93E92FFF27EF70F070E40FF51F4A
:1013500020812E93892F992782958F70480F591FCE
:10136000FA018081FD01829308959C0197FF30C0AE
:101370008FEB80937C0020953095C9016AE070E086
:1013800082D5E82FF0E0E459FF4F808180937F0001
:10139000C9016AE070E077D59B01CB016AE070E09B
:1013A00072D5E82FF0E0E459FF4F808180937E00F2
:1013B000C9016AE070E067D5CB016AE070E063D5EF
:1013C000E82FF0E0E459FF4F808180937D0039C021
:1013D0006AE070E058D5E82FF0E0E459FF4F8081D3
:1013E00080937F00C9016AE070E04DD59B01CB017D
:1013F0006AE070E048D5E82FF0E0E459FF4F8081C3
:1014000080937E00C9016AE070E03DD59B01CB016D
:101410006AE070E038D5E82FF0E0E459FF4F8081B2
:1014200080937D00C9016AE070E02DD5CB016AE0B0
:1014300070E029D5E82FF0E0E459FF4F80818093D8
:101440007C008091CA00853078F48091CA0088239E
:1014500059F08091CA00E4E0F0E0E81BF109E4589B
:10146000FF4F80818F77808308950895CF93DF9316
:10147000EC012FEF3FEF40E050E02AC0E991AE2FA2
:10148000B0E0A227B327AF70B070AA0FBB1FA0585F
:10149000BF4F8D919C91B4E036952795BA95E1F7B1
:1014A00082279327E295EF70F0E0E827F927EF70A5
:1014B000F070EE0FFF1FE058FF4F20813181E4E014
:1014C00096958795EA95E1F7282739274F5F5F4F73
:1014D0004617570798F2C901DF91CF910895000090
:1014E000AC9A000000000000AD9A00000000AC982B
:1014F000000000000000AD98000008950000AD98C5
:1015000000000000AC98000000000000AD9A000050
:101510000000AC9A00000000089520E030E0482F61
:1015200050E0CA01022E02C0880F991F0A94E2F708
:1015300087FF05C00000AC9A0000000004C0000056
:10154000AC98000000000000AD9A00000000000010
:101550000000AD9800002F5F3F4F2830310509F79C
:101560000000AD9800000000AC98000000000000F2
:10157000AD9A0000000000000000AD980000089542
:10158000FC010000AD980000A4980000AC98000099
:10159000000090E080E00000AD9800000000AD9AEF
:1015A0000000880F9C9981609F5F9830A1F780832D
:1015B0000000AD9800000000AC9800000000A49A64
:1015C0000000AD9A0000000000000000AD9800008F
:1015D00008951F93182F83DF80E99FDF812F9DDF00
:1015E0008DDF1F910895A49AA59A8CE8F2DF0895E3
:1015F000DF93CF9300D00F92CDB7DEB719821A8256
:101600001B826DDF81E989DFCE010196B9DFCE0152
:101610000296B6DFCE010396B3DF70DF398120E09A
:101620008A81280F311DC9010F900F900F90CF9123
:10163000DF9108955058BB27AA270ED089C17AD1CF
:1016400030F07FD120F031F49F3F11F41EF46FC1D0
:101650000EF4E095E7FB3CC1E92F8BD180F3BA177C
:10166000620773078407950718F071F49EF5BAC1F5
:101670000EF4E0950B2EBA2FA02D0B01B9019001AD
:101680000C01CA01A0011124FF27591B99F0593FF1
:1016900050F4503E68F11A16F040A22F232F342F39
:1016A0004427585FF3CF469537952795A795F04087
:1016B0005395C9F77EF41F16BA0B620B730B840B9C
:1016C000BAF09150A1F0FF0FBB1F661F771F881F54
:1016D000C2F70EC0BA0F621F731F841F48F48795AC
:1016E00077956795B795F7959E3F08F0B3CF93959B
:1016F000880F08F09927EE0F9795879508955BD18D
:1017000080F09F3740F491110EF46DC160E070E0FD
:1017100080E89FE3089526F01B16611D711D811D51
:10172000DDC0F7C00CD014C10CD140F003D130F0B3
:1017300021F45F3F19F0CCC0511155C1F8C019D147
:1017400098F39923C9F35523B1F3951B550BBB2788
:10175000AA2762177307840738F09F5F5F4F220F35
:10176000331F441FAA1FA9F333D00E2E3AF0E0E82E
:1017700030D091505040E695001CCAF729D0FE2F7A
:1017800027D0660F771F881FBB1F2617370748070C
:10179000AB07B0E809F0BB0B802DBF01FF279358C2
:1017A0005F4F2AF09E3F510568F092C01CC15F3F19
:1017B000ECF3983EDCF3869577956795B795F795AA
:1017C0009F5FC9F7880F911D9695879597F90895A2
:1017D000E1E0660F771F881FBB1F6217730784073E
:1017E000BA0720F0621B730B840BBA0BEE1F88F74D
:1017F000E095089504D06894B111F5C00895C1D062
:1018000088F09F5790F0B92F9927B751A0F0D1F0E9
:10181000660F771F881F991F1AF0BA95C9F712C073
:10182000B13081F0DFD0B1E00895DCC0672F782FB0
:101830008827B85F39F0B93FCCF3869577956795DF
:10184000B395D9F73EF490958095709561957F4F4B
:101850008F4F9F4F0895E89409C097FB3EF49095F1
:101860008095709561957F4F8F4F9F4F9923A9F079
:10187000F92F96E9BB279395F69587957795679508
:10188000B795F111F8CFFAF4BB0F11F460FF1BC04C
:101890006F5F7F4F8F4F9F4F16C0882311F096E9DF
:1018A00011C0772321F09EE8872F762F05C066238D
:1018B00071F096E8862F70E060E02AF09A95660F46
:1018C000771F881FDAF7880F9695879597F90895FF
:1018D00097F99F6780E870E060E00895882371F4CD
:1018E000772321F09850872B762F07C0662311F4B9
:1018F00099270DC09051862B70E060E02AF09A95F0
:10190000660F771F881FDAF7880F9695879597F9E6
:1019100008959F3F31F0915020F487957795679512
:10192000B795880F911D9695879597F908959FEF24
:1019300080EC089500240A94161617061806090666
:10194000089500240A941216130614060506089535
:10195000092E0394000C11F4882352F0BB0F40F4BD
:10196000BF2B11F460FF04C06F5F7F4F8F4F9F4FFD
:10197000089557FD9058440F551F59F05F3F71F07F
:101980004795880F97FB991F61F09F3F79F08795E6
:101990000895121613061406551FF2CF4695F1DF6F
:1019A00008C0161617061806991FF1CF86957105FF
:1019B000610508940895E5DFA0F0BEE7B91788F443
:1019C000BB279F3860F41616B11D672F782F882724
:1019D000985FF7CF869577956795B11D9395963962
:1019E000C8F30895E894BB2766277727CB0197F9BA
:1019F000089525D108F48FEF08950BD0A9CF9ADF71
:101A000028F09FDF18F0952309F062CF90CF1124C2
:101A1000EACFAFDFA0F3959FD1F3950F50E0551FAC
:101A2000629FF001729FBB27F00DB11D639FAA2733
:101A3000F00DB11DAA1F649F6627B00DA11D661F82
:101A4000829F2227B00DA11D621F739FB00DA11DA3
:101A5000621F839FA00D611D221F749F3327A00D5D
:101A6000611D231F849F600D211D822F762F6A2FF9
:101A700011249F5750408AF0E1F088234AF0EE0F7E
:101A8000FF1FBB1F661F771F881F91505040A9F78B
:101A90009E3F510570F01CCFA6CF5F3FECF3983E00
:101AA000DCF3869577956795B795F795E7959F5FF2
:101AB000C1F7FE2B880F911D9695879597F908958C
:101AC000FA01EE0FFF1F30962105310599F16115DE
:101AD000710561F48038BFE39B0749F16894903841
:101AE000810561F08038BFEF9B0741F0992342F5F3
:101AF000FF3FE1053105210511F1E8940894E795D0
:101B0000D901AA2329F4AB2FBE2FF85FD0F310C060
:101B1000FF5F70F4A695E0F7F73950F019F0FF3A3F
:101B200038F49F779F930CD00F9007FC905808953E
:101B30003EF0FDCE60E070E080E89FE308954FE75F
:101B40009F775F934F933F932F930BD12F913F91AB
:101B50004F915F9152DF47C011F40EF4E8CED9CE19
:101B600010DFD0F39923D9F3CEF39F57550B87FF9E
:101B70008AD00024A0E640EA9001805856959795B7
:101B800028F4805C660F771F881F20F02617370720
:101B9000480730F4621B730B840B202931294A2B30
:101BA000A69517940794202531254A2758F7660FE4
:101BB000771F881F20F026173707480730F4620B7D
:101BC000730B840B200D311D411DA09581F7B901C8
:101BD000842F9158880F96958795089519F40EF0E3
:101BE00077CE00CFA4CECDDEC8F39638C0F707F885
:101BF0000F92E8942BE33AEA48EB5FE70CDF0F9291
:101C00000F920F924DB75EB70F92EBD0E6E2F0E085
:101C100041D04F915F91EF91FF91E595EE1FFF1F2E
:101C200049F0FE57E0684427EE0F441FFA95E1F7AC
:101C30004195550B5DD00F9007FE51C00895990F47
:101C40000008550FAA0BE0E8FEEF16161706E80786
:101C5000F907C0F012161306E407F50798F0621BA7
:101C6000730B840B950B39F40A2661F0232B242B7C
:101C7000252B21F408950A2609F4A140A6958FEF9B
:101C8000811D811D089591505040660F771F881F58
:101C9000D2F70895DF93CF931F930F93FF92EF92A4
:101CA000DF927B018C01689405C0DA2EEF01B1DE72
:101CB000FE01E894A5912591359145915591AEF39A
:101CC000EF01CADCFE019701A801DA9479F7DF90F1
:101CD000EF90FF900F911F91CF91DF9108959B019D
:101CE000AC0160E070E080E89FE31CCDF1CD11CE47
:101CF00048DEE8F39923D9F3940F511DBBF39150BB
:101D0000504094F059F0882332F0660F771F881FF7
:101D100091505040C1F79E3F510544F7880F911DE7
:101D20009695879597F908955F3FACF0983E9CF0A3
:101D3000BB27869577956795B79508F4B16093951D
:101D4000C1F7BB0F58F711F460FFE8CF6F5F7F4F0B
:101D50008F4F9F4FE3CF47CE0EF0DBCDE8CD689499
:101D6000B7CD0FDEC8F39923D1F3C6F3DF93CF933A
:101D70001F930F93FF92C92FDD2788232AF0219705
:101D8000660F771F881FDAF720E030E040E85FEB4E
:101D90009FE3883920F0803E30F021968F774BDC2E
:101DA000EEE4F0E003C047DCEBE7F0E073DF8B012B
:101DB000BE01EC01FB2E6F5771097595771F880BDB
:101DC000990B4BDD28E132E741E35FE322DEAF2DE3
:101DD0009801AE01FF900F911F91CF91DF913CDCF4
:101DE000B7CDFA01DC01AA0FBB1F9B01AC01BF57A5
:101DF00028F422273327442750781FC0B75188F48E
:101E0000AB2F0024469537952795011CA395D2F357
:101E1000002069F0220F331F441FB395DAF30DD071
:101E200009CC61307105A0E88A07B94630F49B01FE
:101E3000AC016627772788279078309621F0208399
:101E40003183428353830895629FD001739FF001D1
:101E5000829FE00DF11D649FE00DF11D929FF00D3A
:101E6000839FF00D749FF00D659FF00D9927729F71
:101E7000B00DE11DF91F639FB00DE11DF91FBD01FC
:101E8000CF0111240895AA1BBB1B51E107C0AA1F53
:101E9000BB1FA617B70710F0A61BB70B881F991F0B
:101EA0005A95A9F780959095BC01CD010895A1E2BE
:101EB0001A2EAA1BBB1BFD010DC0AA1FBB1FEE1FC4
:101EC000FF1FA217B307E407F50720F0A21BB30B0F
:101ED000E40BF50B661F771F881F991F1A9469F78B
:101EE00060957095809590959B01AC01BD01CF01E7
:101EF000089597FB092E05260ED057FD04D0D7DF95
:101F00000AD0001C38F450954095309521953F4FEC
:101F10004F4F5F4F0895F6F79095809570956195B6
:101F20007F4F8F4F9F4F0895E199FECF9FBB8EBB90
:101F3000E09A99278DB30895A8E1B0E042E050E01F
:101F400012C0262FE199FECF9FBB8EBB2DBB0FB6D3
:101F5000F894E29AE19A0FBE01960895F2DF272FD6
:101F6000F1CFDC01CB01FC01E199FECF06C0FFBB44
:101F7000EEBBE09A31960DB20D9241505040B8F749
:061F80000895F894FFCF64
:101F860089D25E3A46B6133FC05FAE3FC0F9A4B0F1
:101F9600999282F880908883C6A1868E4040404000
:101FA600000001CC01D8001401F0003C002801E437
:101FB60001A0006C007801B40050019C0188004427
:00000001FF
